{
  "contractName": "SharkCoin",
  "abi": [
    {
      "constant": true,
      "inputs": [],
      "name": "signUpBonus",
      "outputs": [
        {
          "name": "",
          "type": "uint8"
        }
      ],
      "payable": false,
      "stateMutability": "view",
      "type": "function"
    },
    {
      "constant": true,
      "inputs": [],
      "name": "name",
      "outputs": [
        {
          "name": "",
          "type": "string"
        }
      ],
      "payable": false,
      "stateMutability": "view",
      "type": "function"
    },
    {
      "constant": false,
      "inputs": [
        {
          "name": "to",
          "type": "address"
        },
        {
          "name": "principal",
          "type": "uint256"
        },
        {
          "name": "interestPercent",
          "type": "uint256"
        },
        {
          "name": "dueBlocks",
          "type": "uint256"
        }
      ],
      "name": "loan",
      "outputs": [
        {
          "name": "success",
          "type": "bool"
        }
      ],
      "payable": false,
      "stateMutability": "nonpayable",
      "type": "function"
    },
    {
      "constant": true,
      "inputs": [],
      "name": "totalSupply",
      "outputs": [
        {
          "name": "",
          "type": "uint256"
        }
      ],
      "payable": false,
      "stateMutability": "view",
      "type": "function"
    },
    {
      "constant": true,
      "inputs": [],
      "name": "userFactory",
      "outputs": [
        {
          "name": "",
          "type": "address"
        }
      ],
      "payable": false,
      "stateMutability": "view",
      "type": "function"
    },
    {
      "constant": false,
      "inputs": [
        {
          "name": "_factoryAddress",
          "type": "address"
        }
      ],
      "name": "setUserFactory",
      "outputs": [
        {
          "name": "success",
          "type": "bool"
        }
      ],
      "payable": false,
      "stateMutability": "nonpayable",
      "type": "function"
    },
    {
      "constant": true,
      "inputs": [],
      "name": "decimals",
      "outputs": [
        {
          "name": "",
          "type": "uint8"
        }
      ],
      "payable": false,
      "stateMutability": "view",
      "type": "function"
    },
    {
      "constant": false,
      "inputs": [
        {
          "name": "to",
          "type": "address"
        },
        {
          "name": "tokens",
          "type": "uint256"
        }
      ],
      "name": "reputate",
      "outputs": [
        {
          "name": "success",
          "type": "bool"
        }
      ],
      "payable": false,
      "stateMutability": "nonpayable",
      "type": "function"
    },
    {
      "constant": false,
      "inputs": [
        {
          "name": "newContractUser",
          "type": "address"
        }
      ],
      "name": "giftToNewUser",
      "outputs": [
        {
          "name": "success",
          "type": "bool"
        }
      ],
      "payable": false,
      "stateMutability": "nonpayable",
      "type": "function"
    },
    {
      "constant": true,
      "inputs": [
        {
          "name": "sharkUser",
          "type": "address"
        }
      ],
      "name": "balanceOf",
      "outputs": [
        {
          "name": "balance",
          "type": "uint256"
        }
      ],
      "payable": false,
      "stateMutability": "view",
      "type": "function"
    },
    {
      "constant": true,
      "inputs": [],
      "name": "owner",
      "outputs": [
        {
          "name": "",
          "type": "address"
        }
      ],
      "payable": false,
      "stateMutability": "view",
      "type": "function"
    },
    {
      "constant": true,
      "inputs": [],
      "name": "symbol",
      "outputs": [
        {
          "name": "",
          "type": "string"
        }
      ],
      "payable": false,
      "stateMutability": "view",
      "type": "function"
    },
    {
      "constant": true,
      "inputs": [],
      "name": "factoryAddress",
      "outputs": [
        {
          "name": "",
          "type": "address"
        }
      ],
      "payable": false,
      "stateMutability": "view",
      "type": "function"
    },
    {
      "constant": false,
      "inputs": [
        {
          "name": "to",
          "type": "address"
        },
        {
          "name": "tokens",
          "type": "uint256"
        }
      ],
      "name": "transfer",
      "outputs": [
        {
          "name": "success",
          "type": "bool"
        }
      ],
      "payable": false,
      "stateMutability": "nonpayable",
      "type": "function"
    },
    {
      "constant": true,
      "inputs": [],
      "name": "getTotalSupply",
      "outputs": [
        {
          "name": "",
          "type": "uint256"
        }
      ],
      "payable": false,
      "stateMutability": "view",
      "type": "function"
    },
    {
      "constant": true,
      "inputs": [
        {
          "name": "sharkUser",
          "type": "address"
        }
      ],
      "name": "reputationOf",
      "outputs": [
        {
          "name": "reputation",
          "type": "uint256"
        }
      ],
      "payable": false,
      "stateMutability": "view",
      "type": "function"
    },
    {
      "constant": true,
      "inputs": [],
      "name": "getUserFactory",
      "outputs": [
        {
          "name": "",
          "type": "address"
        }
      ],
      "payable": false,
      "stateMutability": "view",
      "type": "function"
    },
    {
      "inputs": [
        {
          "name": "balance",
          "type": "uint256"
        }
      ],
      "payable": false,
      "stateMutability": "nonpayable",
      "type": "constructor"
    },
    {
      "anonymous": false,
      "inputs": [
        {
          "indexed": false,
          "name": "msg",
          "type": "string"
        }
      ],
      "name": "Error",
      "type": "event"
    },
    {
      "anonymous": false,
      "inputs": [
        {
          "indexed": true,
          "name": "from",
          "type": "address"
        },
        {
          "indexed": true,
          "name": "to",
          "type": "address"
        },
        {
          "indexed": false,
          "name": "tokens",
          "type": "uint256"
        }
      ],
      "name": "Transfer",
      "type": "event"
    },
    {
      "anonymous": false,
      "inputs": [
        {
          "indexed": true,
          "name": "from",
          "type": "address"
        },
        {
          "indexed": true,
          "name": "to",
          "type": "address"
        },
        {
          "indexed": false,
          "name": "tokens",
          "type": "uint256"
        }
      ],
      "name": "Reputate",
      "type": "event"
    }
  ],
  "bytecode": "0x6060604052341561000f57600080fd5b60405160208061135b8339810160405280805190602001909190505080600281905550336000806101000a81548173ffffffffffffffffffffffffffffffffffffffff021916908373ffffffffffffffffffffffffffffffffffffffff16021790555080600460008060009054906101000a900473ffffffffffffffffffffffffffffffffffffffff1673ffffffffffffffffffffffffffffffffffffffff1673ffffffffffffffffffffffffffffffffffffffff1681526020019081526020016000208190555050611274806100e76000396000f3006060604052600436106100f1576000357c0100000000000000000000000000000000000000000000000000000000900463ffffffff1680630538ab05146100f657806306fdde031461012557806314ac8a8c146101b357806318160ddd1461021f578063283097ab1461024857806330cc15431461029d578063313ce567146102ee578063341ca48a1461031d5780635c0c1ac81461037757806370a08231146103c85780638da5cb5b1461041557806395d89b411461046a578063966dae0e146104f8578063a9059cbb1461054d578063c4e41b22146105a7578063db89c044146105d0578063e1d551551461061d575b600080fd5b341561010157600080fd5b610109610672565b604051808260ff1660ff16815260200191505060405180910390f35b341561013057600080fd5b610138610677565b6040518080602001828103825283818151815260200191508051906020019080838360005b8381101561017857808201518184015260208101905061015d565b50505050905090810190601f1680156101a55780820380516001836020036101000a031916815260200191505b509250505060405180910390f35b34156101be57600080fd5b610205600480803573ffffffffffffffffffffffffffffffffffffffff169060200190919080359060200190919080359060200190919080359060200190919050506106b0565b604051808215151515815260200191505060405180910390f35b341561022a57600080fd5b6102326106ba565b6040518082815260200191505060405180910390f35b341561025357600080fd5b61025b6106c0565b604051808273ffffffffffffffffffffffffffffffffffffffff1673ffffffffffffffffffffffffffffffffffffffff16815260200191505060405180910390f35b34156102a857600080fd5b6102d4600480803573ffffffffffffffffffffffffffffffffffffffff169060200190919050506106e6565b604051808215151515815260200191505060405180910390f35b34156102f957600080fd5b610301610820565b604051808260ff1660ff16815260200191505060405180910390f35b341561032857600080fd5b61035d600480803573ffffffffffffffffffffffffffffffffffffffff16906020019091908035906020019091905050610825565b604051808215151515815260200191505060405180910390f35b341561038257600080fd5b6103ae600480803573ffffffffffffffffffffffffffffffffffffffff16906020019091905050610c49565b604051808215151515815260200191505060405180910390f35b34156103d357600080fd5b6103ff600480803573ffffffffffffffffffffffffffffffffffffffff16906020019091905050610eca565b6040518082815260200191505060405180910390f35b341561042057600080fd5b610428610f13565b604051808273ffffffffffffffffffffffffffffffffffffffff1673ffffffffffffffffffffffffffffffffffffffff16815260200191505060405180910390f35b341561047557600080fd5b61047d610f38565b6040518080602001828103825283818151815260200191508051906020019080838360005b838110156104bd5780820151818401526020810190506104a2565b50505050905090810190601f1680156104ea5780820380516001836020036101000a031916815260200191505b509250505060405180910390f35b341561050357600080fd5b61050b610f71565b604051808273ffffffffffffffffffffffffffffffffffffffff1673ffffffffffffffffffffffffffffffffffffffff16815260200191505060405180910390f35b341561055857600080fd5b61058d600480803573ffffffffffffffffffffffffffffffffffffffff16906020019091908035906020019091905050610f97565b604051808215151515815260200191505060405180910390f35b34156105b257600080fd5b6105ba6111cb565b6040518082815260200191505060405180910390f35b34156105db57600080fd5b610607600480803573ffffffffffffffffffffffffffffffffffffffff169060200190919050506111d5565b6040518082815260200191505060405180910390f35b341561062857600080fd5b61063061121e565b604051808273ffffffffffffffffffffffffffffffffffffffff1673ffffffffffffffffffffffffffffffffffffffff16815260200191505060405180910390f35b606481565b6040805190810160405280600a81526020017f536861726b20436f696e0000000000000000000000000000000000000000000081525081565b6000949350505050565b60025481565b600360009054906101000a900473ffffffffffffffffffffffffffffffffffffffff1681565b60008060009054906101000a900473ffffffffffffffffffffffffffffffffffffffff1673ffffffffffffffffffffffffffffffffffffffff163373ffffffffffffffffffffffffffffffffffffffff161415156107d5577f08c379a0afcc32b1a39302f7cb8073359698411ab5fd6e3edb2c02c0b5fba8aa6040518080602001828103825260258152602001807f596f7520617265206e6f742074686520626f7373206f6620746865207368617281526020017f6b206b696400000000000000000000000000000000000000000000000000000081525060400191505060405180910390a16000905061081b565b81600160006101000a81548173ffffffffffffffffffffffffffffffffffffffff021916908373ffffffffffffffffffffffffffffffffffffffff160217905550600190505b919050565b600081565b6000600160009054906101000a900473ffffffffffffffffffffffffffffffffffffffff16600360006101000a81548173ffffffffffffffffffffffffffffffffffffffff021916908373ffffffffffffffffffffffffffffffffffffffff160217905550600360009054906101000a900473ffffffffffffffffffffffffffffffffffffffff1673ffffffffffffffffffffffffffffffffffffffff166332fcff13846000604051602001526040518263ffffffff167c0100000000000000000000000000000000000000000000000000000000028152600401808273ffffffffffffffffffffffffffffffffffffffff1673ffffffffffffffffffffffffffffffffffffffff168152602001915050602060405180830381600087803b151561094f57600080fd5b6102c65a03f1151561096057600080fd5b505050604051805190501515610a07577f08c379a0afcc32b1a39302f7cb8073359698411ab5fd6e3edb2c02c0b5fba8aa6040518080602001828103825260318152602001807f5573657273206e6f7420696e207468652073797374656d2063616e6e6f74206881526020017f61766520612072657075746174696f6e2100000000000000000000000000000081525060400191505060405180910390a160009050610c43565b81600460003373ffffffffffffffffffffffffffffffffffffffff1673ffffffffffffffffffffffffffffffffffffffff168152602001908152602001600020541015610abf577f08c379a0afcc32b1a39302f7cb8073359698411ab5fd6e3edb2c02c0b5fba8aa6040518080602001828103825260108152602001807f596f752061726520746f6f20706f6f720000000000000000000000000000000081525060200191505060405180910390a160009050610c43565b81600460003373ffffffffffffffffffffffffffffffffffffffff1673ffffffffffffffffffffffffffffffffffffffff1681526020019081526020016000205403600460003373ffffffffffffffffffffffffffffffffffffffff1673ffffffffffffffffffffffffffffffffffffffff168152602001908152602001600020819055508160026000828254039250508190555081600560008573ffffffffffffffffffffffffffffffffffffffff1673ffffffffffffffffffffffffffffffffffffffff1681526020019081526020016000205401600560008573ffffffffffffffffffffffffffffffffffffffff1673ffffffffffffffffffffffffffffffffffffffff168152602001908152602001600020819055508273ffffffffffffffffffffffffffffffffffffffff163373ffffffffffffffffffffffffffffffffffffffff167f31c7738f9f0e74d058858ed5d7e504f675cb8ca144c4d6f3ac5f529a0eb3134b846040518082815260200191505060405180910390a3600190505b92915050565b6000600160009054906101000a900473ffffffffffffffffffffffffffffffffffffffff1673ffffffffffffffffffffffffffffffffffffffff163373ffffffffffffffffffffffffffffffffffffffff16141515610d13577f08c379a0afcc32b1a39302f7cb8073359698411ab5fd6e3edb2c02c0b5fba8aa60405180806020018281038252601d8152602001807f546869732069732064656669616e74656c792063796265726372696d6500000081525060200191505060405180910390a160009050610ec5565b60011515600660008473ffffffffffffffffffffffffffffffffffffffff1673ffffffffffffffffffffffffffffffffffffffff16815260200190815260200160002060009054906101000a900460ff1615151415610e03577f08c379a0afcc32b1a39302f7cb8073359698411ab5fd6e3edb2c02c0b5fba8aa6040518080602001828103825260228152602001807f54686973207573657220616c726561647920676f7420696e74726f20636f696e81526020017f732100000000000000000000000000000000000000000000000000000000000081525060400191505060405180910390a160009050610ec5565b606460ff16600460008473ffffffffffffffffffffffffffffffffffffffff1673ffffffffffffffffffffffffffffffffffffffff168152602001908152602001600020600082825401925050819055506001600660008473ffffffffffffffffffffffffffffffffffffffff1673ffffffffffffffffffffffffffffffffffffffff16815260200190815260200160002060006101000a81548160ff021916908315150217905550606460ff16600260008282540192505081905550600190505b919050565b6000600460008373ffffffffffffffffffffffffffffffffffffffff1673ffffffffffffffffffffffffffffffffffffffff168152602001908152602001600020549050919050565b6000809054906101000a900473ffffffffffffffffffffffffffffffffffffffff1681565b6040805190810160405280600381526020017f53484b000000000000000000000000000000000000000000000000000000000081525081565b600160009054906101000a900473ffffffffffffffffffffffffffffffffffffffff1681565b600081600460003373ffffffffffffffffffffffffffffffffffffffff1673ffffffffffffffffffffffffffffffffffffffff168152602001908152602001600020541015611051577f08c379a0afcc32b1a39302f7cb8073359698411ab5fd6e3edb2c02c0b5fba8aa6040518080602001828103825260108152602001807f596f752061726520746f6f20706f6f720000000000000000000000000000000081525060200191505060405180910390a1600090506111c5565b81600460003373ffffffffffffffffffffffffffffffffffffffff1673ffffffffffffffffffffffffffffffffffffffff1681526020019081526020016000205403600460003373ffffffffffffffffffffffffffffffffffffffff1673ffffffffffffffffffffffffffffffffffffffff1681526020019081526020016000208190555081600460008573ffffffffffffffffffffffffffffffffffffffff1673ffffffffffffffffffffffffffffffffffffffff1681526020019081526020016000205401600460008573ffffffffffffffffffffffffffffffffffffffff1673ffffffffffffffffffffffffffffffffffffffff168152602001908152602001600020819055508273ffffffffffffffffffffffffffffffffffffffff163373ffffffffffffffffffffffffffffffffffffffff167fddf252ad1be2c89b69c2b068fc378daa952ba7f163c4a11628f55a4df523b3ef846040518082815260200191505060405180910390a3600190505b92915050565b6000600254905090565b6000600560008373ffffffffffffffffffffffffffffffffffffffff1673ffffffffffffffffffffffffffffffffffffffff168152602001908152602001600020549050919050565b6000600160009054906101000a900473ffffffffffffffffffffffffffffffffffffffff169050905600a165627a7a72305820576612ea4809da35b79215375a92f73fc363b9ddca8da0f951d5b39561a0fdeb0029",
  "source": "pragma solidity ^0.4.8;\nimport \"./UserFactory.sol\";\n\ncontract SharkCoin {\n  address public owner;\n  address public factoryAddress;\n  uint public totalSupply;\n  UserFactory public userFactory;\n\n  mapping(address => uint256) balances;\n  mapping(address => uint256) reputations;\n  mapping(address => bool) gifted;\n\n  string public constant name = \"Shark Coin\";\n  string public constant symbol = \"SHK\";\n  uint8 public constant decimals = 0;\n  uint8 public constant signUpBonus = 100;\n\n  function SharkCoin(uint balance) public {\n    totalSupply = balance;\n    owner = msg.sender;\n    balances[owner] = balance;\n  }\n\n  function giftToNewUser(address newContractUser) public returns (bool success) {\n    if (msg.sender != factoryAddress) {\n      Error(\"This is defiantely cybercrime\");\n      return false;\n    }\n    if (gifted[newContractUser] == true) {\n      Error(\"This user already got intro coins!\");\n      return false;\n    }\n    balances[newContractUser] += signUpBonus;\n    gifted[newContractUser] = true;\n    totalSupply += signUpBonus;\n\n    return true;\n  }\n\n  function setUserFactory(address _factoryAddress) public returns (bool success) {\n    if (msg.sender != owner) {\n      Error(\"You are not the boss of the shark kid\");\n      return false;\n    }\n    factoryAddress = _factoryAddress;\n    return true;\n  }\n\n  function getUserFactory() public constant returns (UserFactory) {\n    return UserFactory(factoryAddress);\n  }\n\n  function getTotalSupply() public constant returns (uint) {\n    return totalSupply;\n  }\n\n  function balanceOf(address sharkUser) public constant returns (uint balance) {\n    return balances[sharkUser];\n  }\n\n  function reputationOf(address sharkUser) public constant returns (uint reputation) {\n    return reputations[sharkUser];\n  }\n\n  function transfer(address to, uint tokens) public returns (bool success) {\n    if (balances[msg.sender] < tokens) {\n      Error(\"You are too poor\");\n      return false;\n    }\n\n    balances[msg.sender] = balances[msg.sender] - tokens;\n    balances[to] = balances[to] + tokens;\n    Transfer(msg.sender, to, tokens);\n\n    return true;\n  }\n\n  function reputate(address to, uint tokens) public returns (bool success) {\n    userFactory = UserFactory(factoryAddress);\n    if (!userFactory.userExistsAt(to)) {\n      Error(\"Users not in the system cannot have a reputation!\");\n      return false;\n    }\n    if (balances[msg.sender] < tokens) {\n      Error(\"You are too poor\");\n      return false;\n    }\n\n    balances[msg.sender] = balances[msg.sender] - tokens;\n    totalSupply -= tokens;\n    reputations[to] = reputations[to] + tokens;\n    Reputate(msg.sender, to, tokens);\n\n    return true;\n  }\n\n  function loan(address to, uint principal, uint interestPercent, uint dueBlocks) public returns (bool success) {\n    // Fail and return false if there is no user at the to address\n    // Fail and return false if you guys are not buddies\n\n    // Loan is created\n    // Loan is probably a contract or structure with these things and that includes block it has been created at\n    // When Loan is due,\n  }\n\n  event Error(string msg);\n  event Transfer(address indexed from, address indexed to, uint tokens);\n  event Reputate(address indexed from, address indexed to, uint tokens);\n\n  // TODO: Add loan functionality\n  /*\n    Okay how do we want a loan to work?\n    We can only loan to users registered by our factory\n    Loans are a struct\n    loan grows after some period\n    every block a loan is late a peputation hit is given\n    is a loan is ate it drains your account if you have money then eats your reputation\n\n    To do this, get block number, block as a dude date, also variable for new thing\n    Loan can be it's own contracts\n    Takes due block, amont, interest\n\n    perhaps give interest if things happen\n\n\n    loans require mutual buddyship\n  */\n}\n",
  "sourcePath": "/Users/alexseong/OneDrive/blockchain/SHARKCOIN/contracts/SharkCoin.sol",
  "compiler": {
    "name": "solc",
    "version": "0.4.18+commit.9cf6e910.Emscripten.clang"
  },
  "schemaVersion": "1.0.1",
  "updatedAt": "2018-01-28T01:02:28.179Z"
}