{
  "contractName": "User",
  "abi": [
    {
      "constant": true,
      "inputs": [
        {
          "name": "",
          "type": "address"
        }
      ],
      "name": "reviews",
      "outputs": [
        {
          "name": "",
          "type": "string"
        }
      ],
      "payable": false,
      "stateMutability": "view",
      "type": "function"
    },
    {
      "constant": true,
      "inputs": [],
      "name": "interests",
      "outputs": [
        {
          "name": "",
          "type": "string"
        }
      ],
      "payable": false,
      "stateMutability": "view",
      "type": "function"
    },
    {
      "constant": true,
      "inputs": [],
      "name": "getSharkBalance",
      "outputs": [
        {
          "name": "balance",
          "type": "uint256"
        }
      ],
      "payable": false,
      "stateMutability": "view",
      "type": "function"
    },
    {
      "constant": true,
      "inputs": [],
      "name": "firstName",
      "outputs": [
        {
          "name": "",
          "type": "string"
        }
      ],
      "payable": false,
      "stateMutability": "view",
      "type": "function"
    },
    {
      "constant": true,
      "inputs": [
        {
          "name": "",
          "type": "address"
        }
      ],
      "name": "buddies",
      "outputs": [
        {
          "name": "",
          "type": "bool"
        }
      ],
      "payable": false,
      "stateMutability": "view",
      "type": "function"
    },
    {
      "constant": false,
      "inputs": [
        {
          "name": "_newName",
          "type": "string"
        }
      ],
      "name": "setFirstName",
      "outputs": [
        {
          "name": "",
          "type": "bool"
        }
      ],
      "payable": false,
      "stateMutability": "nonpayable",
      "type": "function"
    },
    {
      "constant": true,
      "inputs": [
        {
          "name": "",
          "type": "uint256"
        }
      ],
      "name": "buddiesList",
      "outputs": [
        {
          "name": "",
          "type": "address"
        }
      ],
      "payable": false,
      "stateMutability": "view",
      "type": "function"
    },
    {
      "constant": false,
      "inputs": [
        {
          "name": "newBuddy",
          "type": "address"
        }
      ],
      "name": "addBuddy",
      "outputs": [
        {
          "name": "",
          "type": "bool"
        }
      ],
      "payable": false,
      "stateMutability": "nonpayable",
      "type": "function"
    },
    {
      "constant": true,
      "inputs": [],
      "name": "getSharkRep",
      "outputs": [
        {
          "name": "reputation",
          "type": "uint256"
        }
      ],
      "payable": false,
      "stateMutability": "view",
      "type": "function"
    },
    {
      "constant": true,
      "inputs": [],
      "name": "owner",
      "outputs": [
        {
          "name": "",
          "type": "address"
        }
      ],
      "payable": false,
      "stateMutability": "view",
      "type": "function"
    },
    {
      "constant": false,
      "inputs": [
        {
          "name": "_newName",
          "type": "string"
        }
      ],
      "name": "setLastName",
      "outputs": [
        {
          "name": "",
          "type": "bool"
        }
      ],
      "payable": false,
      "stateMutability": "nonpayable",
      "type": "function"
    },
    {
      "constant": true,
      "inputs": [],
      "name": "lastName",
      "outputs": [
        {
          "name": "",
          "type": "string"
        }
      ],
      "payable": false,
      "stateMutability": "view",
      "type": "function"
    },
    {
      "constant": true,
      "inputs": [],
      "name": "factory",
      "outputs": [
        {
          "name": "",
          "type": "address"
        }
      ],
      "payable": false,
      "stateMutability": "view",
      "type": "function"
    },
    {
      "constant": true,
      "inputs": [],
      "name": "governingCoin",
      "outputs": [
        {
          "name": "",
          "type": "address"
        }
      ],
      "payable": false,
      "stateMutability": "view",
      "type": "function"
    },
    {
      "constant": true,
      "inputs": [],
      "name": "sharkCoin",
      "outputs": [
        {
          "name": "",
          "type": "address"
        }
      ],
      "payable": false,
      "stateMutability": "view",
      "type": "function"
    },
    {
      "constant": false,
      "inputs": [
        {
          "name": "_newInterests",
          "type": "string"
        }
      ],
      "name": "setInterests",
      "outputs": [
        {
          "name": "",
          "type": "bool"
        }
      ],
      "payable": false,
      "stateMutability": "nonpayable",
      "type": "function"
    },
    {
      "constant": true,
      "inputs": [],
      "name": "bio",
      "outputs": [
        {
          "name": "",
          "type": "string"
        }
      ],
      "payable": false,
      "stateMutability": "view",
      "type": "function"
    },
    {
      "constant": false,
      "inputs": [
        {
          "name": "_newBio",
          "type": "string"
        }
      ],
      "name": "setBio",
      "outputs": [
        {
          "name": "",
          "type": "bool"
        }
      ],
      "payable": false,
      "stateMutability": "nonpayable",
      "type": "function"
    },
    {
      "inputs": [
        {
          "name": "_owner",
          "type": "address"
        },
        {
          "name": "_factoryAddress",
          "type": "address"
        },
        {
          "name": "_governingCoin",
          "type": "address"
        },
        {
          "name": "_firstName",
          "type": "string"
        },
        {
          "name": "_lastName",
          "type": "string"
        },
        {
          "name": "_interests",
          "type": "string"
        },
        {
          "name": "_bio",
          "type": "string"
        }
      ],
      "payable": false,
      "stateMutability": "nonpayable",
      "type": "constructor"
    },
    {
      "anonymous": false,
      "inputs": [
        {
          "indexed": false,
          "name": "changedTo",
          "type": "string"
        }
      ],
      "name": "FirstNameChanged",
      "type": "event"
    },
    {
      "anonymous": false,
      "inputs": [
        {
          "indexed": false,
          "name": "changedTo",
          "type": "string"
        }
      ],
      "name": "LastNameChanged",
      "type": "event"
    },
    {
      "anonymous": false,
      "inputs": [
        {
          "indexed": false,
          "name": "changedTo",
          "type": "string"
        }
      ],
      "name": "InterestsChanged",
      "type": "event"
    },
    {
      "anonymous": false,
      "inputs": [
        {
          "indexed": false,
          "name": "changedTo",
          "type": "string"
        }
      ],
      "name": "BioChanged",
      "type": "event"
    },
    {
      "anonymous": false,
      "inputs": [
        {
          "indexed": false,
          "name": "buddyAdder",
          "type": "address"
        },
        {
          "indexed": false,
          "name": "addedBuddy",
          "type": "address"
        }
      ],
      "name": "BuddyAdded",
      "type": "event"
    },
    {
      "anonymous": false,
      "inputs": [
        {
          "indexed": false,
          "name": "msg",
          "type": "string"
        }
      ],
      "name": "Error",
      "type": "event"
    }
  ],
  "bytecode": "0x606060405234156200001057600080fd5b60405162001bdf38038062001bdf83398101604052808051906020019091908051906020019091908051906020019091908051820191906020018051820191906020018051820191906020018051820191905050866000806101000a81548173ffffffffffffffffffffffffffffffffffffffff021916908373ffffffffffffffffffffffffffffffffffffffff16021790555085600260006101000a81548173ffffffffffffffffffffffffffffffffffffffff021916908373ffffffffffffffffffffffffffffffffffffffff16021790555084600160006101000a81548173ffffffffffffffffffffffffffffffffffffffff021916908373ffffffffffffffffffffffffffffffffffffffff16021790555083600490805190602001906200013e92919062000197565b5082600590805190602001906200015792919062000197565b5081600690805190602001906200017092919062000197565b5080600790805190602001906200018992919062000197565b505050505050505062000246565b828054600181600116156101000203166002900490600052602060002090601f016020900481019282601f10620001da57805160ff19168380011785556200020b565b828001600101855582156200020b579182015b828111156200020a578251825591602001919060010190620001ed565b5b5090506200021a91906200021e565b5090565b6200024391905b808211156200023f57600081600090555060010162000225565b5090565b90565b61198980620002566000396000f3006060604052600436106100fc576000357c0100000000000000000000000000000000000000000000000000000000900463ffffffff1680630755464f1461010157806314a3db2d146101b3578063193b0b4c146102415780634589fe0c1461026a5780635c55a78a146102f85780636392f76b146103495780636bc24bee146103be578063703476cd146104215780637113ea01146104725780638da5cb5b1461049b578063932754f9146104f05780639ab03dcb14610565578063c45a0155146105f3578063dcc86f7c14610648578063de336e191461069d578063f4165119146106f2578063f516b42214610767578063fb7e06d8146107f5575b600080fd5b341561010c57600080fd5b610138600480803573ffffffffffffffffffffffffffffffffffffffff1690602001909190505061086a565b6040518080602001828103825283818151815260200191508051906020019080838360005b8381101561017857808201518184015260208101905061015d565b50505050905090810190601f1680156101a55780820380516001836020036101000a031916815260200191505b509250505060405180910390f35b34156101be57600080fd5b6101c661091a565b6040518080602001828103825283818151815260200191508051906020019080838360005b838110156102065780820151818401526020810190506101eb565b50505050905090810190601f1680156102335780820380516001836020036101000a031916815260200191505b509250505060405180910390f35b341561024c57600080fd5b6102546109b8565b6040518082815260200191505060405180910390f35b341561027557600080fd5b61027d610b26565b6040518080602001828103825283818151815260200191508051906020019080838360005b838110156102bd5780820151818401526020810190506102a2565b50505050905090810190601f1680156102ea5780820380516001836020036101000a031916815260200191505b509250505060405180910390f35b341561030357600080fd5b61032f600480803573ffffffffffffffffffffffffffffffffffffffff16906020019091905050610bc4565b604051808215151515815260200191505060405180910390f35b341561035457600080fd5b6103a4600480803590602001908201803590602001908080601f01602080910402602001604051908101604052809392919081815260200183838082843782019150505050505091905050610be4565b604051808215151515815260200191505060405180910390f35b34156103c957600080fd5b6103df6004808035906020019091905050610d6a565b604051808273ffffffffffffffffffffffffffffffffffffffff1673ffffffffffffffffffffffffffffffffffffffff16815260200191505060405180910390f35b341561042c57600080fd5b610458600480803573ffffffffffffffffffffffffffffffffffffffff16906020019091905050610da9565b604051808215151515815260200191505060405180910390f35b341561047d57600080fd5b6104856110b9565b6040518082815260200191505060405180910390f35b34156104a657600080fd5b6104ae611227565b604051808273ffffffffffffffffffffffffffffffffffffffff1673ffffffffffffffffffffffffffffffffffffffff16815260200191505060405180910390f35b34156104fb57600080fd5b61054b600480803590602001908201803590602001908080601f0160208091040260200160405190810160405280939291908181526020018383808284378201915050505050509190505061124c565b604051808215151515815260200191505060405180910390f35b341561057057600080fd5b6105786113d2565b6040518080602001828103825283818151815260200191508051906020019080838360005b838110156105b857808201518184015260208101905061059d565b50505050905090810190601f1680156105e55780820380516001836020036101000a031916815260200191505b509250505060405180910390f35b34156105fe57600080fd5b610606611470565b604051808273ffffffffffffffffffffffffffffffffffffffff1673ffffffffffffffffffffffffffffffffffffffff16815260200191505060405180910390f35b341561065357600080fd5b61065b611496565b604051808273ffffffffffffffffffffffffffffffffffffffff1673ffffffffffffffffffffffffffffffffffffffff16815260200191505060405180910390f35b34156106a857600080fd5b6106b06114bc565b604051808273ffffffffffffffffffffffffffffffffffffffff1673ffffffffffffffffffffffffffffffffffffffff16815260200191505060405180910390f35b34156106fd57600080fd5b61074d600480803590602001908201803590602001908080601f016020809104026020016040519081016040528093929190818152602001838380828437820191505050505050919050506114e2565b604051808215151515815260200191505060405180910390f35b341561077257600080fd5b61077a611668565b6040518080602001828103825283818151815260200191508051906020019080838360005b838110156107ba57808201518184015260208101905061079f565b50505050905090810190601f1680156107e75780820380516001836020036101000a031916815260200191505b509250505060405180910390f35b341561080057600080fd5b610850600480803590602001908201803590602001908080601f01602080910402602001604051908101604052809392919081815260200183838082843782019150505050505091905050611706565b604051808215151515815260200191505060405180910390f35b60096020528060005260406000206000915090508054600181600116156101000203166002900480601f0160208091040260200160405190810160405280929190818152602001828054600181600116156101000203166002900480156109125780601f106108e757610100808354040283529160200191610912565b820191906000526020600020905b8154815290600101906020018083116108f557829003601f168201915b505050505081565b60068054600181600116156101000203166002900480601f0160208091040260200160405190810160405280929190818152602001828054600181600116156101000203166002900480156109b05780601f10610985576101008083540402835291602001916109b0565b820191906000526020600020905b81548152906001019060200180831161099357829003601f168201915b505050505081565b6000600160009054906101000a900473ffffffffffffffffffffffffffffffffffffffff16600360006101000a81548173ffffffffffffffffffffffffffffffffffffffff021916908373ffffffffffffffffffffffffffffffffffffffff160217905550600360009054906101000a900473ffffffffffffffffffffffffffffffffffffffff1673ffffffffffffffffffffffffffffffffffffffff166370a082316000809054906101000a900473ffffffffffffffffffffffffffffffffffffffff166000604051602001526040518263ffffffff167c0100000000000000000000000000000000000000000000000000000000028152600401808273ffffffffffffffffffffffffffffffffffffffff1673ffffffffffffffffffffffffffffffffffffffff168152602001915050602060405180830381600087803b1515610b0357600080fd5b6102c65a03f11515610b1457600080fd5b50505060405180519050905080905090565b60048054600181600116156101000203166002900480601f016020809104026020016040519081016040528092919081815260200182805460018160011615610100020316600290048015610bbc5780601f10610b9157610100808354040283529160200191610bbc565b820191906000526020600020905b815481529060010190602001808311610b9f57829003601f168201915b505050505081565b60086020528060005260406000206000915054906101000a900460ff1681565b60008060009054906101000a900473ffffffffffffffffffffffffffffffffffffffff1673ffffffffffffffffffffffffffffffffffffffff163373ffffffffffffffffffffffffffffffffffffffff16141515610cad577f08c379a0afcc32b1a39302f7cb8073359698411ab5fd6e3edb2c02c0b5fba8aa6040518080602001828103825260158152602001807f596f7520617265206e6f7420746865206f776e6572000000000000000000000081525060200191505060405180910390a160009050610d65565b8160049080519060200190610cc392919061188c565b507f7b9a83d2a95c20dc645e5d8b6dba9744df06989626a6e9726f5ce6023530bf22826040518080602001828103825283818151815260200191508051906020019080838360005b83811015610d26578082015181840152602081019050610d0b565b50505050905090810190601f168015610d535780820380516001836020036101000a031916815260200191505b509250505060405180910390a1600190505b919050565b600a81815481101515610d7957fe5b90600052602060002090016000915054906101000a900473ffffffffffffffffffffffffffffffffffffffff1681565b60008060009054906101000a900473ffffffffffffffffffffffffffffffffffffffff1673ffffffffffffffffffffffffffffffffffffffff163373ffffffffffffffffffffffffffffffffffffffff16141515610e72577f08c379a0afcc32b1a39302f7cb8073359698411ab5fd6e3edb2c02c0b5fba8aa6040518080602001828103825260158152602001807f596f7520617265206e6f7420746865206f776e6572000000000000000000000081525060200191505060405180910390a1600090506110b4565b60011515600860008473ffffffffffffffffffffffffffffffffffffffff1673ffffffffffffffffffffffffffffffffffffffff16815260200190815260200160002060009054906101000a900460ff1615151415610f3c577f08c379a0afcc32b1a39302f7cb8073359698411ab5fd6e3edb2c02c0b5fba8aa6040518080602001828103825260178152602001807f486520697320796f75722062756464792073696c6c792100000000000000000081525060200191505060405180910390a1600090506110b4565b6000600860008473ffffffffffffffffffffffffffffffffffffffff1673ffffffffffffffffffffffffffffffffffffffff16815260200190815260200160002060006101000a81548160ff021916908315150217905550600a8054806001018281610fa8919061190c565b9160005260206000209001600084909190916101000a81548173ffffffffffffffffffffffffffffffffffffffff021916908373ffffffffffffffffffffffffffffffffffffffff160217905550507f76129d70ea2862af58e4fe9510193e0f5cc281ad1146a59297d2d8c630b633da6000809054906101000a900473ffffffffffffffffffffffffffffffffffffffff1683604051808373ffffffffffffffffffffffffffffffffffffffff1673ffffffffffffffffffffffffffffffffffffffff1681526020018273ffffffffffffffffffffffffffffffffffffffff1673ffffffffffffffffffffffffffffffffffffffff1681526020019250505060405180910390a1600190505b919050565b6000600160009054906101000a900473ffffffffffffffffffffffffffffffffffffffff16600360006101000a81548173ffffffffffffffffffffffffffffffffffffffff021916908373ffffffffffffffffffffffffffffffffffffffff160217905550600360009054906101000a900473ffffffffffffffffffffffffffffffffffffffff1673ffffffffffffffffffffffffffffffffffffffff1663db89c0446000809054906101000a900473ffffffffffffffffffffffffffffffffffffffff166000604051602001526040518263ffffffff167c0100000000000000000000000000000000000000000000000000000000028152600401808273ffffffffffffffffffffffffffffffffffffffff1673ffffffffffffffffffffffffffffffffffffffff168152602001915050602060405180830381600087803b151561120457600080fd5b6102c65a03f1151561121557600080fd5b50505060405180519050905080905090565b6000809054906101000a900473ffffffffffffffffffffffffffffffffffffffff1681565b60008060009054906101000a900473ffffffffffffffffffffffffffffffffffffffff1673ffffffffffffffffffffffffffffffffffffffff163373ffffffffffffffffffffffffffffffffffffffff16141515611315577f08c379a0afcc32b1a39302f7cb8073359698411ab5fd6e3edb2c02c0b5fba8aa6040518080602001828103825260158152602001807f596f7520617265206e6f7420746865206f776e6572000000000000000000000081525060200191505060405180910390a1600090506113cd565b816005908051906020019061132b92919061188c565b507fb70f000ddcb515f17afcfb8732c509066b19c9e1606a29c0407b6bdf3eebfeee826040518080602001828103825283818151815260200191508051906020019080838360005b8381101561138e578082015181840152602081019050611373565b50505050905090810190601f1680156113bb5780820380516001836020036101000a031916815260200191505b509250505060405180910390a1600190505b919050565b60058054600181600116156101000203166002900480601f0160208091040260200160405190810160405280929190818152602001828054600181600116156101000203166002900480156114685780601f1061143d57610100808354040283529160200191611468565b820191906000526020600020905b81548152906001019060200180831161144b57829003601f168201915b505050505081565b600260009054906101000a900473ffffffffffffffffffffffffffffffffffffffff1681565b600160009054906101000a900473ffffffffffffffffffffffffffffffffffffffff1681565b600360009054906101000a900473ffffffffffffffffffffffffffffffffffffffff1681565b60008060009054906101000a900473ffffffffffffffffffffffffffffffffffffffff1673ffffffffffffffffffffffffffffffffffffffff163373ffffffffffffffffffffffffffffffffffffffff161415156115ab577f08c379a0afcc32b1a39302f7cb8073359698411ab5fd6e3edb2c02c0b5fba8aa6040518080602001828103825260158152602001807f596f7520617265206e6f7420746865206f776e6572000000000000000000000081525060200191505060405180910390a160009050611663565b81600690805190602001906115c192919061188c565b507fe5a63af15a3369286d4447e13ce108c064524f7d49587f3c23dc12ba01b69381826040518080602001828103825283818151815260200191508051906020019080838360005b83811015611624578082015181840152602081019050611609565b50505050905090810190601f1680156116515780820380516001836020036101000a031916815260200191505b509250505060405180910390a1600190505b919050565b60078054600181600116156101000203166002900480601f0160208091040260200160405190810160405280929190818152602001828054600181600116156101000203166002900480156116fe5780601f106116d3576101008083540402835291602001916116fe565b820191906000526020600020905b8154815290600101906020018083116116e157829003601f168201915b505050505081565b60008060009054906101000a900473ffffffffffffffffffffffffffffffffffffffff1673ffffffffffffffffffffffffffffffffffffffff163373ffffffffffffffffffffffffffffffffffffffff161415156117cf577f08c379a0afcc32b1a39302f7cb8073359698411ab5fd6e3edb2c02c0b5fba8aa6040518080602001828103825260158152602001807f596f7520617265206e6f7420746865206f776e6572000000000000000000000081525060200191505060405180910390a160009050611887565b81600790805190602001906117e592919061188c565b507f7c7487923823eea9f4c546435591888e28b95ae3daa14dc7eb542eaaee73b94a826040518080602001828103825283818151815260200191508051906020019080838360005b8381101561184857808201518184015260208101905061182d565b50505050905090810190601f1680156118755780820380516001836020036101000a031916815260200191505b509250505060405180910390a1600190505b919050565b828054600181600116156101000203166002900490600052602060002090601f016020900481019282601f106118cd57805160ff19168380011785556118fb565b828001600101855582156118fb579182015b828111156118fa5782518255916020019190600101906118df565b5b5090506119089190611938565b5090565b815481835581811511611933578183600052602060002091820191016119329190611938565b5b505050565b61195a91905b8082111561195657600081600090555060010161193e565b5090565b905600a165627a7a72305820f57d3be15241abf0ca6d5294eed41c841d99a93212eccb282396a53ad51e02330029",
  "source": "pragma solidity 0.4.18;\nimport \"./SharkCoin.sol\";\nimport \"./UserFactory.sol\";\n\ncontract User {\n  address public owner;\n  address public governingCoin;\n  UserFactory public factory;\n  SharkCoin public sharkCoin;\n  string public firstName;\n  string public lastName;\n  string public interests;\n  string public bio;\n\n  // note that these addresses are not public keys of users but instead\n  mapping (address => bool) public buddies;\n  // Note that this is reviews of us not not reviews we have written, these addresses represent the writer not the recipient\n  mapping (address => string) public reviews;\n  address[] public buddiesList;\n\n\n  function User(address _owner, address _factoryAddress, address _governingCoin, string _firstName, string _lastName, string _interests, string _bio) public {\n    owner = _owner;\n    factory = UserFactory(_factoryAddress);\n    governingCoin = _governingCoin;\n    firstName = _firstName;\n    lastName = _lastName;\n    interests = _interests;\n    bio = _bio;\n  }\n\n  function getSharkBalance() public constant returns(uint balance) {\n    sharkCoin = SharkCoin(governingCoin);\n    balance = sharkCoin.balanceOf(owner);\n    return(balance);\n  }\n\n  function getSharkRep() public constant returns(uint reputation) {\n    sharkCoin = SharkCoin(governingCoin);\n    reputation = sharkCoin.reputationOf(owner);\n    return(reputation);\n  }\n\n  function setFirstName(string _newName) public returns(bool) {\n      if (msg.sender != owner) {\n          Error(\"You are not the owner\");\n          return false;\n      }\n      firstName = _newName;\n      FirstNameChanged(_newName);\n      return true;\n  }\n\n  function setLastName(string _newName) public returns(bool) {\n      if (msg.sender != owner) {\n          Error(\"You are not the owner\");\n          return false;\n      }\n      lastName = _newName;\n      LastNameChanged(_newName);\n      return true;\n  }\n\n  function setInterests(string _newInterests) public returns(bool) {\n      if (msg.sender != owner) {\n          Error(\"You are not the owner\");\n          return false;\n      }\n      interests = _newInterests;\n      InterestsChanged(_newInterests);\n      return true;\n  }\n\n  function setBio(string _newBio) public returns(bool) {\n      if (msg.sender != owner) {\n          Error(\"You are not the owner\");\n          return false;\n      }\n      bio = _newBio;\n      BioChanged(_newBio);\n      return true;\n  }\n\n  function addBuddy(address newBuddy) public returns(bool) {\n    if (msg.sender != owner) {\n        Error(\"You are not the owner\");\n        return false;\n    }\n\n    if(buddies[newBuddy] == true) {\n      Error(\"He is your buddy silly!\");\n      return false;\n    }\n\n    buddies[newBuddy] = false;\n    buddiesList.push(newBuddy);\n    BuddyAdded(owner, newBuddy);\n    return true;\n  }\n\n  // TODO: functionality for reviews and how that might work\n\n  event FirstNameChanged(string changedTo);\n  event LastNameChanged(string changedTo);\n  event InterestsChanged(string changedTo);\n  event BioChanged(string changedTo);\n  event BuddyAdded(address buddyAdder, address addedBuddy);\n  event Error(string msg);\n}\n",
  "sourcePath": "/Users/alexseong/OneDrive/blockchain/SHARKCOIN/contracts/User.sol",
  "compiler": {
    "name": "solc",
    "version": "0.4.18+commit.9cf6e910.Emscripten.clang"
  },
  "schemaVersion": "1.0.1",
  "updatedAt": "2018-01-28T01:02:28.179Z"
}