{
  "contractName": "UserFactory",
  "abi": [
    {
      "constant": true,
      "inputs": [
        {
          "name": "potentialUser",
          "type": "address"
        }
      ],
      "name": "userExistsAt",
      "outputs": [
        {
          "name": "hasUserContract",
          "type": "bool"
        }
      ],
      "payable": false,
      "stateMutability": "view",
      "type": "function"
    },
    {
      "constant": true,
      "inputs": [
        {
          "name": "",
          "type": "uint256"
        }
      ],
      "name": "usersList",
      "outputs": [
        {
          "name": "",
          "type": "address"
        }
      ],
      "payable": false,
      "stateMutability": "view",
      "type": "function"
    },
    {
      "constant": true,
      "inputs": [
        {
          "name": "buddyOne",
          "type": "address"
        },
        {
          "name": "buddyTwo",
          "type": "address"
        }
      ],
      "name": "isMutualBuddies",
      "outputs": [
        {
          "name": "areBuddies",
          "type": "bool"
        }
      ],
      "payable": false,
      "stateMutability": "view",
      "type": "function"
    },
    {
      "constant": false,
      "inputs": [
        {
          "name": "uid",
          "type": "address"
        },
        {
          "name": "name",
          "type": "string"
        },
        {
          "name": "surname",
          "type": "string"
        },
        {
          "name": "interests",
          "type": "string"
        },
        {
          "name": "about",
          "type": "string"
        }
      ],
      "name": "newUser",
      "outputs": [
        {
          "name": "success",
          "type": "bool"
        }
      ],
      "payable": false,
      "stateMutability": "nonpayable",
      "type": "function"
    },
    {
      "constant": true,
      "inputs": [
        {
          "name": "",
          "type": "address"
        }
      ],
      "name": "users",
      "outputs": [
        {
          "name": "uid",
          "type": "address"
        },
        {
          "name": "contractAddress",
          "type": "address"
        },
        {
          "name": "exists",
          "type": "bool"
        }
      ],
      "payable": false,
      "stateMutability": "view",
      "type": "function"
    },
    {
      "constant": true,
      "inputs": [],
      "name": "getUserCount",
      "outputs": [
        {
          "name": "userCount",
          "type": "uint256"
        }
      ],
      "payable": false,
      "stateMutability": "view",
      "type": "function"
    },
    {
      "constant": true,
      "inputs": [],
      "name": "governingCoin",
      "outputs": [
        {
          "name": "",
          "type": "address"
        }
      ],
      "payable": false,
      "stateMutability": "view",
      "type": "function"
    },
    {
      "constant": true,
      "inputs": [],
      "name": "sharkCoin",
      "outputs": [
        {
          "name": "",
          "type": "address"
        }
      ],
      "payable": false,
      "stateMutability": "view",
      "type": "function"
    },
    {
      "constant": true,
      "inputs": [
        {
          "name": "buddyOne",
          "type": "address"
        },
        {
          "name": "buddyTwo",
          "type": "address"
        }
      ],
      "name": "isMutualBuddiesEthAddress",
      "outputs": [
        {
          "name": "areBuddies",
          "type": "bool"
        }
      ],
      "payable": false,
      "stateMutability": "view",
      "type": "function"
    },
    {
      "inputs": [
        {
          "name": "_sharkAddress",
          "type": "address"
        }
      ],
      "payable": false,
      "stateMutability": "nonpayable",
      "type": "constructor"
    },
    {
      "anonymous": false,
      "inputs": [
        {
          "indexed": false,
          "name": "uid",
          "type": "address"
        },
        {
          "indexed": false,
          "name": "u",
          "type": "address"
        }
      ],
      "name": "AddUser",
      "type": "event"
    }
  ],
  "bytecode": "0x6060604052341561000f57600080fd5b604051602080612d3a83398101604052808051906020019091905050806000806101000a81548173ffffffffffffffffffffffffffffffffffffffff021916908373ffffffffffffffffffffffffffffffffffffffff16021790555050612cbf8061007b6000396000f300606060405260043610610099576000357c0100000000000000000000000000000000000000000000000000000000900463ffffffff16806332fcff131461009e578063502aa3b5146100ef5780636398483c1461015257806383221a11146101c2578063a87430ba1461031f578063b5cb15f7146103d6578063dcc86f7c146103ff578063de336e1914610454578063e04fd4d2146104a9575b600080fd5b34156100a957600080fd5b6100d5600480803573ffffffffffffffffffffffffffffffffffffffff16906020019091905050610519565b604051808215151515815260200191505060405180910390f35b34156100fa57600080fd5b6101106004808035906020019091905050610572565b604051808273ffffffffffffffffffffffffffffffffffffffff1673ffffffffffffffffffffffffffffffffffffffff16815260200191505060405180910390f35b341561015d57600080fd5b6101a8600480803573ffffffffffffffffffffffffffffffffffffffff1690602001909190803573ffffffffffffffffffffffffffffffffffffffff169060200190919050506105b1565b604051808215151515815260200191505060405180910390f35b34156101cd57600080fd5b610305600480803573ffffffffffffffffffffffffffffffffffffffff1690602001909190803590602001908201803590602001908080601f0160208091040260200160405190810160405280939291908181526020018383808284378201915050505050509190803590602001908201803590602001908080601f0160208091040260200160405190810160405280939291908181526020018383808284378201915050505050509190803590602001908201803590602001908080601f0160208091040260200160405190810160405280939291908181526020018383808284378201915050505050509190803590602001908201803590602001908080601f0160208091040260200160405190810160405280939291908181526020018383808284378201915050505050509190505061074a565b604051808215151515815260200191505060405180910390f35b341561032a57600080fd5b610356600480803573ffffffffffffffffffffffffffffffffffffffff16906020019091905050610d1c565b604051808473ffffffffffffffffffffffffffffffffffffffff1673ffffffffffffffffffffffffffffffffffffffff1681526020018373ffffffffffffffffffffffffffffffffffffffff1673ffffffffffffffffffffffffffffffffffffffff16815260200182151515158152602001935050505060405180910390f35b34156103e157600080fd5b6103e9610d93565b6040518082815260200191505060405180910390f35b341561040a57600080fd5b610412610da0565b604051808273ffffffffffffffffffffffffffffffffffffffff1673ffffffffffffffffffffffffffffffffffffffff16815260200191505060405180910390f35b341561045f57600080fd5b610467610dc6565b604051808273ffffffffffffffffffffffffffffffffffffffff1673ffffffffffffffffffffffffffffffffffffffff16815260200191505060405180910390f35b34156104b457600080fd5b6104ff600480803573ffffffffffffffffffffffffffffffffffffffff1690602001909190803573ffffffffffffffffffffffffffffffffffffffff16906020019091905050610deb565b604051808215151515815260200191505060405180910390f35b6000600160008373ffffffffffffffffffffffffffffffffffffffff1673ffffffffffffffffffffffffffffffffffffffff16815260200190815260200160002060010160149054906101000a900460ff169050919050565b60028181548110151561058157fe5b90600052602060002090016000915054906101000a900473ffffffffffffffffffffffffffffffffffffffff1681565b60008060008491508390508173ffffffffffffffffffffffffffffffffffffffff16635c55a78a856000604051602001526040518263ffffffff167c0100000000000000000000000000000000000000000000000000000000028152600401808273ffffffffffffffffffffffffffffffffffffffff1673ffffffffffffffffffffffffffffffffffffffff168152602001915050602060405180830381600087803b151561065f57600080fd5b6102c65a03f1151561067057600080fd5b50505060405180519050801561074057508073ffffffffffffffffffffffffffffffffffffffff16635c55a78a866000604051602001526040518263ffffffff167c0100000000000000000000000000000000000000000000000000000000028152600401808273ffffffffffffffffffffffffffffffffffffffff1673ffffffffffffffffffffffffffffffffffffffff168152602001915050602060405180830381600087803b151561072457600080fd5b6102c65a03f1151561073557600080fd5b505050604051805190505b9250505092915050565b60008061075687610519565b156107645760009150610d12565b86306000809054906101000a900473ffffffffffffffffffffffffffffffffffffffff1688888888610794611053565b808873ffffffffffffffffffffffffffffffffffffffff1673ffffffffffffffffffffffffffffffffffffffff1681526020018773ffffffffffffffffffffffffffffffffffffffff1673ffffffffffffffffffffffffffffffffffffffff1681526020018673ffffffffffffffffffffffffffffffffffffffff1673ffffffffffffffffffffffffffffffffffffffff16815260200180602001806020018060200180602001858103855289818151815260200191508051906020019080838360005b83811015610873578082015181840152602081019050610858565b50505050905090810190601f1680156108a05780820380516001836020036101000a031916815260200191505b50858103845288818151815260200191508051906020019080838360005b838110156108d95780820151818401526020810190506108be565b50505050905090810190601f1680156109065780820380516001836020036101000a031916815260200191505b50858103835287818151815260200191508051906020019080838360005b8381101561093f578082015181840152602081019050610924565b50505050905090810190601f16801561096c5780820380516001836020036101000a031916815260200191505b50858103825286818151815260200191508051906020019080838360005b838110156109a557808201518184015260208101905061098a565b50505050905090810190601f1680156109d25780820380516001836020036101000a031916815260200191505b509b505050505050505050505050604051809103906000f08015156109f657600080fd5b90506060604051908101604052808873ffffffffffffffffffffffffffffffffffffffff1681526020018273ffffffffffffffffffffffffffffffffffffffff16815260200160011515815250600160008973ffffffffffffffffffffffffffffffffffffffff1673ffffffffffffffffffffffffffffffffffffffff16815260200190815260200160002060008201518160000160006101000a81548173ffffffffffffffffffffffffffffffffffffffff021916908373ffffffffffffffffffffffffffffffffffffffff16021790555060208201518160010160006101000a81548173ffffffffffffffffffffffffffffffffffffffff021916908373ffffffffffffffffffffffffffffffffffffffff16021790555060408201518160010160146101000a81548160ff02191690831515021790555090505060028054806001018281610b479190611063565b9160005260206000209001600089909190916101000a81548173ffffffffffffffffffffffffffffffffffffffff021916908373ffffffffffffffffffffffffffffffffffffffff160217905550506000809054906101000a900473ffffffffffffffffffffffffffffffffffffffff1673ffffffffffffffffffffffffffffffffffffffff16635c0c1ac8886000604051602001526040518263ffffffff167c0100000000000000000000000000000000000000000000000000000000028152600401808273ffffffffffffffffffffffffffffffffffffffff1673ffffffffffffffffffffffffffffffffffffffff168152602001915050602060405180830381600087803b1515610c5a57600080fd5b6102c65a03f11515610c6b57600080fd5b50505060405180519050507f3991f82e9de7452553a54f55bfb32267468069a5c08dd6eb29f7ab9e99b697d68782604051808373ffffffffffffffffffffffffffffffffffffffff1673ffffffffffffffffffffffffffffffffffffffff1681526020018273ffffffffffffffffffffffffffffffffffffffff1673ffffffffffffffffffffffffffffffffffffffff1681526020019250505060405180910390a1600191505b5095945050505050565b60016020528060005260406000206000915090508060000160009054906101000a900473ffffffffffffffffffffffffffffffffffffffff16908060010160009054906101000a900473ffffffffffffffffffffffffffffffffffffffff16908060010160149054906101000a900460ff16905083565b6000600280549050905090565b600360009054906101000a900473ffffffffffffffffffffffffffffffffffffffff1681565b6000809054906101000a900473ffffffffffffffffffffffffffffffffffffffff1681565b6000806000806000600160008873ffffffffffffffffffffffffffffffffffffffff1673ffffffffffffffffffffffffffffffffffffffff16815260200190815260200160002060010160009054906101000a900473ffffffffffffffffffffffffffffffffffffffff169350600160008773ffffffffffffffffffffffffffffffffffffffff1673ffffffffffffffffffffffffffffffffffffffff16815260200190815260200160002060010160009054906101000a900473ffffffffffffffffffffffffffffffffffffffff1692508391508290508173ffffffffffffffffffffffffffffffffffffffff16635c55a78a846000604051602001526040518263ffffffff167c0100000000000000000000000000000000000000000000000000000000028152600401808273ffffffffffffffffffffffffffffffffffffffff1673ffffffffffffffffffffffffffffffffffffffff168152602001915050602060405180830381600087803b1515610f6657600080fd5b6102c65a03f11515610f7757600080fd5b50505060405180519050801561104757508073ffffffffffffffffffffffffffffffffffffffff16635c55a78a856000604051602001526040518263ffffffff167c0100000000000000000000000000000000000000000000000000000000028152600401808273ffffffffffffffffffffffffffffffffffffffff1673ffffffffffffffffffffffffffffffffffffffff168152602001915050602060405180830381600087803b151561102b57600080fd5b6102c65a03f1151561103c57600080fd5b505050604051805190505b94505050505092915050565b604051611bdf806110b583390190565b81548183558181151161108a57818360005260206000209182019101611089919061108f565b5b505050565b6110b191905b808211156110ad576000816000905550600101611095565b5090565b905600606060405234156200001057600080fd5b60405162001bdf38038062001bdf83398101604052808051906020019091908051906020019091908051906020019091908051820191906020018051820191906020018051820191906020018051820191905050866000806101000a81548173ffffffffffffffffffffffffffffffffffffffff021916908373ffffffffffffffffffffffffffffffffffffffff16021790555085600260006101000a81548173ffffffffffffffffffffffffffffffffffffffff021916908373ffffffffffffffffffffffffffffffffffffffff16021790555084600160006101000a81548173ffffffffffffffffffffffffffffffffffffffff021916908373ffffffffffffffffffffffffffffffffffffffff16021790555083600490805190602001906200013e92919062000197565b5082600590805190602001906200015792919062000197565b5081600690805190602001906200017092919062000197565b5080600790805190602001906200018992919062000197565b505050505050505062000246565b828054600181600116156101000203166002900490600052602060002090601f016020900481019282601f10620001da57805160ff19168380011785556200020b565b828001600101855582156200020b579182015b828111156200020a578251825591602001919060010190620001ed565b5b5090506200021a91906200021e565b5090565b6200024391905b808211156200023f57600081600090555060010162000225565b5090565b90565b61198980620002566000396000f3006060604052600436106100fc576000357c0100000000000000000000000000000000000000000000000000000000900463ffffffff1680630755464f1461010157806314a3db2d146101b3578063193b0b4c146102415780634589fe0c1461026a5780635c55a78a146102f85780636392f76b146103495780636bc24bee146103be578063703476cd146104215780637113ea01146104725780638da5cb5b1461049b578063932754f9146104f05780639ab03dcb14610565578063c45a0155146105f3578063dcc86f7c14610648578063de336e191461069d578063f4165119146106f2578063f516b42214610767578063fb7e06d8146107f5575b600080fd5b341561010c57600080fd5b610138600480803573ffffffffffffffffffffffffffffffffffffffff1690602001909190505061086a565b6040518080602001828103825283818151815260200191508051906020019080838360005b8381101561017857808201518184015260208101905061015d565b50505050905090810190601f1680156101a55780820380516001836020036101000a031916815260200191505b509250505060405180910390f35b34156101be57600080fd5b6101c661091a565b6040518080602001828103825283818151815260200191508051906020019080838360005b838110156102065780820151818401526020810190506101eb565b50505050905090810190601f1680156102335780820380516001836020036101000a031916815260200191505b509250505060405180910390f35b341561024c57600080fd5b6102546109b8565b6040518082815260200191505060405180910390f35b341561027557600080fd5b61027d610b26565b6040518080602001828103825283818151815260200191508051906020019080838360005b838110156102bd5780820151818401526020810190506102a2565b50505050905090810190601f1680156102ea5780820380516001836020036101000a031916815260200191505b509250505060405180910390f35b341561030357600080fd5b61032f600480803573ffffffffffffffffffffffffffffffffffffffff16906020019091905050610bc4565b604051808215151515815260200191505060405180910390f35b341561035457600080fd5b6103a4600480803590602001908201803590602001908080601f01602080910402602001604051908101604052809392919081815260200183838082843782019150505050505091905050610be4565b604051808215151515815260200191505060405180910390f35b34156103c957600080fd5b6103df6004808035906020019091905050610d6a565b604051808273ffffffffffffffffffffffffffffffffffffffff1673ffffffffffffffffffffffffffffffffffffffff16815260200191505060405180910390f35b341561042c57600080fd5b610458600480803573ffffffffffffffffffffffffffffffffffffffff16906020019091905050610da9565b604051808215151515815260200191505060405180910390f35b341561047d57600080fd5b6104856110b9565b6040518082815260200191505060405180910390f35b34156104a657600080fd5b6104ae611227565b604051808273ffffffffffffffffffffffffffffffffffffffff1673ffffffffffffffffffffffffffffffffffffffff16815260200191505060405180910390f35b34156104fb57600080fd5b61054b600480803590602001908201803590602001908080601f0160208091040260200160405190810160405280939291908181526020018383808284378201915050505050509190505061124c565b604051808215151515815260200191505060405180910390f35b341561057057600080fd5b6105786113d2565b6040518080602001828103825283818151815260200191508051906020019080838360005b838110156105b857808201518184015260208101905061059d565b50505050905090810190601f1680156105e55780820380516001836020036101000a031916815260200191505b509250505060405180910390f35b34156105fe57600080fd5b610606611470565b604051808273ffffffffffffffffffffffffffffffffffffffff1673ffffffffffffffffffffffffffffffffffffffff16815260200191505060405180910390f35b341561065357600080fd5b61065b611496565b604051808273ffffffffffffffffffffffffffffffffffffffff1673ffffffffffffffffffffffffffffffffffffffff16815260200191505060405180910390f35b34156106a857600080fd5b6106b06114bc565b604051808273ffffffffffffffffffffffffffffffffffffffff1673ffffffffffffffffffffffffffffffffffffffff16815260200191505060405180910390f35b34156106fd57600080fd5b61074d600480803590602001908201803590602001908080601f016020809104026020016040519081016040528093929190818152602001838380828437820191505050505050919050506114e2565b604051808215151515815260200191505060405180910390f35b341561077257600080fd5b61077a611668565b6040518080602001828103825283818151815260200191508051906020019080838360005b838110156107ba57808201518184015260208101905061079f565b50505050905090810190601f1680156107e75780820380516001836020036101000a031916815260200191505b509250505060405180910390f35b341561080057600080fd5b610850600480803590602001908201803590602001908080601f01602080910402602001604051908101604052809392919081815260200183838082843782019150505050505091905050611706565b604051808215151515815260200191505060405180910390f35b60096020528060005260406000206000915090508054600181600116156101000203166002900480601f0160208091040260200160405190810160405280929190818152602001828054600181600116156101000203166002900480156109125780601f106108e757610100808354040283529160200191610912565b820191906000526020600020905b8154815290600101906020018083116108f557829003601f168201915b505050505081565b60068054600181600116156101000203166002900480601f0160208091040260200160405190810160405280929190818152602001828054600181600116156101000203166002900480156109b05780601f10610985576101008083540402835291602001916109b0565b820191906000526020600020905b81548152906001019060200180831161099357829003601f168201915b505050505081565b6000600160009054906101000a900473ffffffffffffffffffffffffffffffffffffffff16600360006101000a81548173ffffffffffffffffffffffffffffffffffffffff021916908373ffffffffffffffffffffffffffffffffffffffff160217905550600360009054906101000a900473ffffffffffffffffffffffffffffffffffffffff1673ffffffffffffffffffffffffffffffffffffffff166370a082316000809054906101000a900473ffffffffffffffffffffffffffffffffffffffff166000604051602001526040518263ffffffff167c0100000000000000000000000000000000000000000000000000000000028152600401808273ffffffffffffffffffffffffffffffffffffffff1673ffffffffffffffffffffffffffffffffffffffff168152602001915050602060405180830381600087803b1515610b0357600080fd5b6102c65a03f11515610b1457600080fd5b50505060405180519050905080905090565b60048054600181600116156101000203166002900480601f016020809104026020016040519081016040528092919081815260200182805460018160011615610100020316600290048015610bbc5780601f10610b9157610100808354040283529160200191610bbc565b820191906000526020600020905b815481529060010190602001808311610b9f57829003601f168201915b505050505081565b60086020528060005260406000206000915054906101000a900460ff1681565b60008060009054906101000a900473ffffffffffffffffffffffffffffffffffffffff1673ffffffffffffffffffffffffffffffffffffffff163373ffffffffffffffffffffffffffffffffffffffff16141515610cad577f08c379a0afcc32b1a39302f7cb8073359698411ab5fd6e3edb2c02c0b5fba8aa6040518080602001828103825260158152602001807f596f7520617265206e6f7420746865206f776e6572000000000000000000000081525060200191505060405180910390a160009050610d65565b8160049080519060200190610cc392919061188c565b507f7b9a83d2a95c20dc645e5d8b6dba9744df06989626a6e9726f5ce6023530bf22826040518080602001828103825283818151815260200191508051906020019080838360005b83811015610d26578082015181840152602081019050610d0b565b50505050905090810190601f168015610d535780820380516001836020036101000a031916815260200191505b509250505060405180910390a1600190505b919050565b600a81815481101515610d7957fe5b90600052602060002090016000915054906101000a900473ffffffffffffffffffffffffffffffffffffffff1681565b60008060009054906101000a900473ffffffffffffffffffffffffffffffffffffffff1673ffffffffffffffffffffffffffffffffffffffff163373ffffffffffffffffffffffffffffffffffffffff16141515610e72577f08c379a0afcc32b1a39302f7cb8073359698411ab5fd6e3edb2c02c0b5fba8aa6040518080602001828103825260158152602001807f596f7520617265206e6f7420746865206f776e6572000000000000000000000081525060200191505060405180910390a1600090506110b4565b60011515600860008473ffffffffffffffffffffffffffffffffffffffff1673ffffffffffffffffffffffffffffffffffffffff16815260200190815260200160002060009054906101000a900460ff1615151415610f3c577f08c379a0afcc32b1a39302f7cb8073359698411ab5fd6e3edb2c02c0b5fba8aa6040518080602001828103825260178152602001807f486520697320796f75722062756464792073696c6c792100000000000000000081525060200191505060405180910390a1600090506110b4565b6000600860008473ffffffffffffffffffffffffffffffffffffffff1673ffffffffffffffffffffffffffffffffffffffff16815260200190815260200160002060006101000a81548160ff021916908315150217905550600a8054806001018281610fa8919061190c565b9160005260206000209001600084909190916101000a81548173ffffffffffffffffffffffffffffffffffffffff021916908373ffffffffffffffffffffffffffffffffffffffff160217905550507f76129d70ea2862af58e4fe9510193e0f5cc281ad1146a59297d2d8c630b633da6000809054906101000a900473ffffffffffffffffffffffffffffffffffffffff1683604051808373ffffffffffffffffffffffffffffffffffffffff1673ffffffffffffffffffffffffffffffffffffffff1681526020018273ffffffffffffffffffffffffffffffffffffffff1673ffffffffffffffffffffffffffffffffffffffff1681526020019250505060405180910390a1600190505b919050565b6000600160009054906101000a900473ffffffffffffffffffffffffffffffffffffffff16600360006101000a81548173ffffffffffffffffffffffffffffffffffffffff021916908373ffffffffffffffffffffffffffffffffffffffff160217905550600360009054906101000a900473ffffffffffffffffffffffffffffffffffffffff1673ffffffffffffffffffffffffffffffffffffffff1663db89c0446000809054906101000a900473ffffffffffffffffffffffffffffffffffffffff166000604051602001526040518263ffffffff167c0100000000000000000000000000000000000000000000000000000000028152600401808273ffffffffffffffffffffffffffffffffffffffff1673ffffffffffffffffffffffffffffffffffffffff168152602001915050602060405180830381600087803b151561120457600080fd5b6102c65a03f1151561121557600080fd5b50505060405180519050905080905090565b6000809054906101000a900473ffffffffffffffffffffffffffffffffffffffff1681565b60008060009054906101000a900473ffffffffffffffffffffffffffffffffffffffff1673ffffffffffffffffffffffffffffffffffffffff163373ffffffffffffffffffffffffffffffffffffffff16141515611315577f08c379a0afcc32b1a39302f7cb8073359698411ab5fd6e3edb2c02c0b5fba8aa6040518080602001828103825260158152602001807f596f7520617265206e6f7420746865206f776e6572000000000000000000000081525060200191505060405180910390a1600090506113cd565b816005908051906020019061132b92919061188c565b507fb70f000ddcb515f17afcfb8732c509066b19c9e1606a29c0407b6bdf3eebfeee826040518080602001828103825283818151815260200191508051906020019080838360005b8381101561138e578082015181840152602081019050611373565b50505050905090810190601f1680156113bb5780820380516001836020036101000a031916815260200191505b509250505060405180910390a1600190505b919050565b60058054600181600116156101000203166002900480601f0160208091040260200160405190810160405280929190818152602001828054600181600116156101000203166002900480156114685780601f1061143d57610100808354040283529160200191611468565b820191906000526020600020905b81548152906001019060200180831161144b57829003601f168201915b505050505081565b600260009054906101000a900473ffffffffffffffffffffffffffffffffffffffff1681565b600160009054906101000a900473ffffffffffffffffffffffffffffffffffffffff1681565b600360009054906101000a900473ffffffffffffffffffffffffffffffffffffffff1681565b60008060009054906101000a900473ffffffffffffffffffffffffffffffffffffffff1673ffffffffffffffffffffffffffffffffffffffff163373ffffffffffffffffffffffffffffffffffffffff161415156115ab577f08c379a0afcc32b1a39302f7cb8073359698411ab5fd6e3edb2c02c0b5fba8aa6040518080602001828103825260158152602001807f596f7520617265206e6f7420746865206f776e6572000000000000000000000081525060200191505060405180910390a160009050611663565b81600690805190602001906115c192919061188c565b507fe5a63af15a3369286d4447e13ce108c064524f7d49587f3c23dc12ba01b69381826040518080602001828103825283818151815260200191508051906020019080838360005b83811015611624578082015181840152602081019050611609565b50505050905090810190601f1680156116515780820380516001836020036101000a031916815260200191505b509250505060405180910390a1600190505b919050565b60078054600181600116156101000203166002900480601f0160208091040260200160405190810160405280929190818152602001828054600181600116156101000203166002900480156116fe5780601f106116d3576101008083540402835291602001916116fe565b820191906000526020600020905b8154815290600101906020018083116116e157829003601f168201915b505050505081565b60008060009054906101000a900473ffffffffffffffffffffffffffffffffffffffff1673ffffffffffffffffffffffffffffffffffffffff163373ffffffffffffffffffffffffffffffffffffffff161415156117cf577f08c379a0afcc32b1a39302f7cb8073359698411ab5fd6e3edb2c02c0b5fba8aa6040518080602001828103825260158152602001807f596f7520617265206e6f7420746865206f776e6572000000000000000000000081525060200191505060405180910390a160009050611887565b81600790805190602001906117e592919061188c565b507f7c7487923823eea9f4c546435591888e28b95ae3daa14dc7eb542eaaee73b94a826040518080602001828103825283818151815260200191508051906020019080838360005b8381101561184857808201518184015260208101905061182d565b50505050905090810190601f1680156118755780820380516001836020036101000a031916815260200191505b509250505060405180910390a1600190505b919050565b828054600181600116156101000203166002900490600052602060002090601f016020900481019282601f106118cd57805160ff19168380011785556118fb565b828001600101855582156118fb579182015b828111156118fa5782518255916020019190600101906118df565b5b5090506119089190611938565b5090565b815481835581811511611933578183600052602060002091820191016119329190611938565b5b505050565b61195a91905b8082111561195657600081600090555060010161193e565b5090565b905600a165627a7a72305820f57d3be15241abf0ca6d5294eed41c841d99a93212eccb282396a53ad51e02330029a165627a7a723058202bf5df1a06e3ec6fc61ed9e224acdf5fb8e1ed93e07a7b822275c24c2dc736030029",
  "source": "pragma solidity ^0.4.8;\nimport \"./User.sol\";\nimport \"./SharkCoin.sol\";\n\ncontract UserFactory {\n  SharkCoin public sharkCoin;\n\n  // TODO: add bool function to know who is mutual buddies\n\n  struct Data {\n    address uid;\n    address contractAddress;\n    bool exists;\n  }\n  // index of created contracts\n  mapping (address => Data) public users;\n  address[] public usersList;\n  address public governingCoin;\n\n  function UserFactory(address _sharkAddress) public {\n    sharkCoin = SharkCoin(_sharkAddress);\n  }\n\n  // useful to know the row count in contracts index\n\n  function getUserCount() public constant returns(uint userCount)\n  {\n   return usersList.length;\n  }\n\n  // deploy a new contract\n\n  function newUser(address uid, string name, string surname, string interests, string about)\n    public\n    returns(bool success)\n  {\n    if (userExistsAt(uid)) {\n      return false;\n    }\n    // this is a security thing as we give new users shark coin, and if they sign up a new user, we give them coins\n    address u = new User(uid, address(this), sharkCoin, name, surname, interests, about);\n    users[uid] = Data({\n      uid: uid,\n      contractAddress: u,\n      exists: true\n    });\n    usersList.push(uid);\n    sharkCoin.giftToNewUser(uid);\n    AddUser(uid, u);\n    return true;\n  }\n\n  function userExistsAt(address potentialUser) public constant returns (bool hasUserContract)\n  {\n    return users[potentialUser].exists;\n  }\n\n  function isMutualBuddies(address buddyOne, address buddyTwo) public constant returns (bool areBuddies) {\n    User userOne = User(buddyOne);\n    User userTwo = User(buddyTwo);\n    return (userOne.buddies(buddyTwo) && userTwo.buddies(buddyOne));\n  }\n\n  function isMutualBuddiesEthAddress(address buddyOne, address buddyTwo) public constant returns (bool areBuddies) {\n    address userOneContractAddress = users[buddyOne].contractAddress;\n    address userTwoContractAddress = users[buddyTwo].contractAddress;\n    User userOne = User(userOneContractAddress);\n    User userTwo = User(userTwoContractAddress);\n    return (userOne.buddies(userTwoContractAddress) && userTwo.buddies(userOneContractAddress));\n  }\n\n  event AddUser(address uid, address u);\n}\n",
  "sourcePath": "/Users/alexseong/OneDrive/blockchain/SHARKCOIN/contracts/UserFactory.sol",
  "compiler": {
    "name": "solc",
    "version": "0.4.18+commit.9cf6e910.Emscripten.clang"
  },
  "schemaVersion": "1.0.1",
  "updatedAt": "2018-01-28T01:02:28.180Z"
}